{
  "_format": "hh-sol-artifact-1",
  "contractName": "Mytoken",
  "sourceName": "contracts/Merkletree.sol",
  "abi": [
    {
      "inputs": [
        {
          "internalType": "bytes32",
          "name": "_merkleRoot",
          "type": "bytes32"
        }
      ],
      "stateMutability": "nonpayable",
      "type": "constructor"
    },
    {
      "anonymous": false,
      "inputs": [
        {
          "indexed": true,
          "internalType": "address",
          "name": "owner",
          "type": "address"
        },
        {
          "indexed": true,
          "internalType": "address",
          "name": "approved",
          "type": "address"
        },
        {
          "indexed": true,
          "internalType": "uint256",
          "name": "tokenId",
          "type": "uint256"
        }
      ],
      "name": "Approval",
      "type": "event"
    },
    {
      "anonymous": false,
      "inputs": [
        {
          "indexed": true,
          "internalType": "address",
          "name": "owner",
          "type": "address"
        },
        {
          "indexed": true,
          "internalType": "address",
          "name": "operator",
          "type": "address"
        },
        {
          "indexed": false,
          "internalType": "bool",
          "name": "approved",
          "type": "bool"
        }
      ],
      "name": "ApprovalForAll",
      "type": "event"
    },
    {
      "anonymous": false,
      "inputs": [
        {
          "indexed": true,
          "internalType": "address",
          "name": "from",
          "type": "address"
        },
        {
          "indexed": true,
          "internalType": "address",
          "name": "to",
          "type": "address"
        },
        {
          "indexed": true,
          "internalType": "uint256",
          "name": "tokenId",
          "type": "uint256"
        }
      ],
      "name": "Transfer",
      "type": "event"
    },
    {
      "inputs": [
        {
          "internalType": "address",
          "name": "to",
          "type": "address"
        },
        {
          "internalType": "uint256",
          "name": "tokenId",
          "type": "uint256"
        }
      ],
      "name": "approve",
      "outputs": [],
      "stateMutability": "nonpayable",
      "type": "function"
    },
    {
      "inputs": [
        {
          "internalType": "address",
          "name": "owner",
          "type": "address"
        }
      ],
      "name": "balanceOf",
      "outputs": [
        {
          "internalType": "uint256",
          "name": "",
          "type": "uint256"
        }
      ],
      "stateMutability": "view",
      "type": "function"
    },
    {
      "inputs": [
        {
          "internalType": "address",
          "name": "",
          "type": "address"
        }
      ],
      "name": "claimed",
      "outputs": [
        {
          "internalType": "bool",
          "name": "",
          "type": "bool"
        }
      ],
      "stateMutability": "view",
      "type": "function"
    },
    {
      "inputs": [
        {
          "internalType": "uint256",
          "name": "tokenId",
          "type": "uint256"
        }
      ],
      "name": "getApproved",
      "outputs": [
        {
          "internalType": "address",
          "name": "",
          "type": "address"
        }
      ],
      "stateMutability": "view",
      "type": "function"
    },
    {
      "inputs": [
        {
          "internalType": "address",
          "name": "owner",
          "type": "address"
        },
        {
          "internalType": "address",
          "name": "operator",
          "type": "address"
        }
      ],
      "name": "isApprovedForAll",
      "outputs": [
        {
          "internalType": "bool",
          "name": "",
          "type": "bool"
        }
      ],
      "stateMutability": "view",
      "type": "function"
    },
    {
      "inputs": [],
      "name": "merkleRoot",
      "outputs": [
        {
          "internalType": "bytes32",
          "name": "",
          "type": "bytes32"
        }
      ],
      "stateMutability": "view",
      "type": "function"
    },
    {
      "inputs": [
        {
          "internalType": "bytes32[]",
          "name": "merkleProof",
          "type": "bytes32[]"
        }
      ],
      "name": "mint",
      "outputs": [],
      "stateMutability": "payable",
      "type": "function"
    },
    {
      "inputs": [],
      "name": "name",
      "outputs": [
        {
          "internalType": "string",
          "name": "",
          "type": "string"
        }
      ],
      "stateMutability": "view",
      "type": "function"
    },
    {
      "inputs": [],
      "name": "nextTokenId",
      "outputs": [
        {
          "internalType": "uint256",
          "name": "",
          "type": "uint256"
        }
      ],
      "stateMutability": "view",
      "type": "function"
    },
    {
      "inputs": [
        {
          "internalType": "uint256",
          "name": "tokenId",
          "type": "uint256"
        }
      ],
      "name": "ownerOf",
      "outputs": [
        {
          "internalType": "address",
          "name": "",
          "type": "address"
        }
      ],
      "stateMutability": "view",
      "type": "function"
    },
    {
      "inputs": [
        {
          "internalType": "address",
          "name": "from",
          "type": "address"
        },
        {
          "internalType": "address",
          "name": "to",
          "type": "address"
        },
        {
          "internalType": "uint256",
          "name": "tokenId",
          "type": "uint256"
        }
      ],
      "name": "safeTransferFrom",
      "outputs": [],
      "stateMutability": "nonpayable",
      "type": "function"
    },
    {
      "inputs": [
        {
          "internalType": "address",
          "name": "from",
          "type": "address"
        },
        {
          "internalType": "address",
          "name": "to",
          "type": "address"
        },
        {
          "internalType": "uint256",
          "name": "tokenId",
          "type": "uint256"
        },
        {
          "internalType": "bytes",
          "name": "data",
          "type": "bytes"
        }
      ],
      "name": "safeTransferFrom",
      "outputs": [],
      "stateMutability": "nonpayable",
      "type": "function"
    },
    {
      "inputs": [
        {
          "internalType": "address",
          "name": "operator",
          "type": "address"
        },
        {
          "internalType": "bool",
          "name": "approved",
          "type": "bool"
        }
      ],
      "name": "setApprovalForAll",
      "outputs": [],
      "stateMutability": "nonpayable",
      "type": "function"
    },
    {
      "inputs": [
        {
          "internalType": "bytes4",
          "name": "interfaceId",
          "type": "bytes4"
        }
      ],
      "name": "supportsInterface",
      "outputs": [
        {
          "internalType": "bool",
          "name": "",
          "type": "bool"
        }
      ],
      "stateMutability": "view",
      "type": "function"
    },
    {
      "inputs": [],
      "name": "symbol",
      "outputs": [
        {
          "internalType": "string",
          "name": "",
          "type": "string"
        }
      ],
      "stateMutability": "view",
      "type": "function"
    },
    {
      "inputs": [
        {
          "internalType": "uint256",
          "name": "tokenId",
          "type": "uint256"
        }
      ],
      "name": "tokenURI",
      "outputs": [
        {
          "internalType": "string",
          "name": "",
          "type": "string"
        }
      ],
      "stateMutability": "view",
      "type": "function"
    },
    {
      "inputs": [
        {
          "internalType": "address",
          "name": "from",
          "type": "address"
        },
        {
          "internalType": "address",
          "name": "to",
          "type": "address"
        },
        {
          "internalType": "uint256",
          "name": "tokenId",
          "type": "uint256"
        }
      ],
      "name": "transferFrom",
      "outputs": [],
      "stateMutability": "nonpayable",
      "type": "function"
    }
  ],
  "bytecode": "0x60a06040523480156200001157600080fd5b5060405162002d0138038062002d018339818101604052810190620000379190620001d6565b6040518060400160405280600881526020017f59696e6b614e46540000000000000000000000000000000000000000000000008152506040518060400160405280600181526020017f40000000000000000000000000000000000000000000000000000000000000008152508160009080519060200190620000bb929190620000e6565b508060019080519060200190620000d4929190620000e6565b5050508060808181525050506200026d565b828054620000f49062000237565b90600052602060002090601f01602090048101928262000118576000855562000164565b82601f106200013357805160ff191683800117855562000164565b8280016001018555821562000164579182015b828111156200016357825182559160200191906001019062000146565b5b50905062000173919062000177565b5090565b5b808211156200019257600081600090555060010162000178565b5090565b600080fd5b6000819050919050565b620001b0816200019b565b8114620001bc57600080fd5b50565b600081519050620001d081620001a5565b92915050565b600060208284031215620001ef57620001ee62000196565b5b6000620001ff84828501620001bf565b91505092915050565b7f4e487b7100000000000000000000000000000000000000000000000000000000600052602260045260246000fd5b600060028204905060018216806200025057607f821691505b6020821081141562000267576200026662000208565b5b50919050565b608051612a7162000290600039600081816107770152610b070152612a716000f3fe6080604052600436106100fe5760003560e01c806370a0823111610095578063b77a147b11610064578063b77a147b14610347578063b88d4fde14610363578063c87b56dd1461038c578063c884ef83146103c9578063e985e9c514610406576100fe565b806370a082311461028b57806375794a3c146102c857806395d89b41146102f3578063a22cb4651461031e576100fe565b806323b872dd116100d157806323b872dd146101d15780632eb4a7ab146101fa57806342842e0e146102255780636352211e1461024e576100fe565b806301ffc9a71461010357806306fdde0314610140578063081812fc1461016b578063095ea7b3146101a8575b600080fd5b34801561010f57600080fd5b5061012a60048036038101906101259190611a17565b610443565b6040516101379190611a5f565b60405180910390f35b34801561014c57600080fd5b50610155610525565b6040516101629190611b13565b60405180910390f35b34801561017757600080fd5b50610192600480360381019061018d9190611b6b565b6105b7565b60405161019f9190611bd9565b60405180910390f35b3480156101b457600080fd5b506101cf60048036038101906101ca9190611c20565b6105fd565b005b3480156101dd57600080fd5b506101f860048036038101906101f39190611c60565b610715565b005b34801561020657600080fd5b5061020f610775565b60405161021c9190611ccc565b60405180910390f35b34801561023157600080fd5b5061024c60048036038101906102479190611c60565b610799565b005b34801561025a57600080fd5b5061027560048036038101906102709190611b6b565b6107b9565b6040516102829190611bd9565b60405180910390f35b34801561029757600080fd5b506102b260048036038101906102ad9190611ce7565b61086b565b6040516102bf9190611d23565b60405180910390f35b3480156102d457600080fd5b506102dd610923565b6040516102ea9190611d23565b60405180910390f35b3480156102ff57600080fd5b50610308610929565b6040516103159190611b13565b60405180910390f35b34801561032a57600080fd5b5061034560048036038101906103409190611d6a565b6109bb565b005b610361600480360381019061035c9190611e0f565b6109d1565b005b34801561036f57600080fd5b5061038a60048036038101906103859190611f8c565b610b9e565b005b34801561039857600080fd5b506103b360048036038101906103ae9190611b6b565b610c00565b6040516103c09190611b13565b60405180910390f35b3480156103d557600080fd5b506103f060048036038101906103eb9190611ce7565b610c68565b6040516103fd9190611a5f565b60405180910390f35b34801561041257600080fd5b5061042d6004803603810190610428919061200f565b610c88565b60405161043a9190611a5f565b60405180910390f35b60007f80ac58cd000000000000000000000000000000000000000000000000000000007bffffffffffffffffffffffffffffffffffffffffffffffffffffffff1916827bffffffffffffffffffffffffffffffffffffffffffffffffffffffff1916148061050e57507f5b5e139f000000000000000000000000000000000000000000000000000000007bffffffffffffffffffffffffffffffffffffffffffffffffffffffff1916827bffffffffffffffffffffffffffffffffffffffffffffffffffffffff1916145b8061051e575061051d82610d1c565b5b9050919050565b6060600080546105349061207e565b80601f01602080910402602001604051908101604052809291908181526020018280546105609061207e565b80156105ad5780601f10610582576101008083540402835291602001916105ad565b820191906000526020600020905b81548152906001019060200180831161059057829003601f168201915b5050505050905090565b60006105c282610d86565b6004600083815260200190815260200160002060009054906101000a900473ffffffffffffffffffffffffffffffffffffffff169050919050565b6000610608826107b9565b90508073ffffffffffffffffffffffffffffffffffffffff168373ffffffffffffffffffffffffffffffffffffffff161415610679576040517f08c379a000000000000000000000000000000000000000000000000000000000815260040161067090612122565b60405180910390fd5b8073ffffffffffffffffffffffffffffffffffffffff16610698610dd1565b73ffffffffffffffffffffffffffffffffffffffff1614806106c757506106c6816106c1610dd1565b610c88565b5b610706576040517f08c379a00000000000000000000000000000000000000000000000000000000081526004016106fd906121b4565b60405180910390fd5b6107108383610dd9565b505050565b610726610720610dd1565b82610e92565b610765576040517f08c379a000000000000000000000000000000000000000000000000000000000815260040161075c90612246565b60405180910390fd5b610770838383610f27565b505050565b7f000000000000000000000000000000000000000000000000000000000000000081565b6107b483838360405180602001604052806000815250610b9e565b505050565b6000806002600084815260200190815260200160002060009054906101000a900473ffffffffffffffffffffffffffffffffffffffff169050600073ffffffffffffffffffffffffffffffffffffffff168173ffffffffffffffffffffffffffffffffffffffff161415610862576040517f08c379a0000000000000000000000000000000000000000000000000000000008152600401610859906122b2565b60405180910390fd5b80915050919050565b60008073ffffffffffffffffffffffffffffffffffffffff168273ffffffffffffffffffffffffffffffffffffffff1614156108dc576040517f08c379a00000000000000000000000000000000000000000000000000000000081526004016108d390612344565b60405180910390fd5b600360008373ffffffffffffffffffffffffffffffffffffffff1673ffffffffffffffffffffffffffffffffffffffff168152602001908152602001600020549050919050565b60065481565b6060600180546109389061207e565b80601f01602080910402602001604051908101604052809291908181526020018280546109649061207e565b80156109b15780601f10610986576101008083540402835291602001916109b1565b820191906000526020600020905b81548152906001019060200180831161099457829003601f168201915b5050505050905090565b6109cd6109c6610dd1565b838361118e565b5050565b60001515600760003373ffffffffffffffffffffffffffffffffffffffff1673ffffffffffffffffffffffffffffffffffffffff16815260200190815260200160002060009054906101000a900460ff16151514610a64576040517f08c379a0000000000000000000000000000000000000000000000000000000008152600401610a5b906123b0565b60405180910390fd5b6001600760003373ffffffffffffffffffffffffffffffffffffffff1673ffffffffffffffffffffffffffffffffffffffff16815260200190815260200160002060006101000a81548160ff02191690831515021790555060011515610b34838380806020026020016040519081016040528093929190818152602001838360200280828437600081840152601f19601f820116905080830192505050505050507f0000000000000000000000000000000000000000000000000000000000000000610b2f336112fb565b61131e565b151514610b76576040517f08c379a0000000000000000000000000000000000000000000000000000000008152600401610b6d9061241c565b60405180910390fd5b60066000815480929190610b899061246b565b9190505550610b9a33600654611335565b5050565b610baf610ba9610dd1565b83610e92565b610bee576040517f08c379a0000000000000000000000000000000000000000000000000000000008152600401610be590612246565b60405180910390fd5b610bfa8484848461150f565b50505050565b6060610c0b82610d86565b6000610c1561156b565b90506000815111610c355760405180602001604052806000815250610c60565b80610c3f84611582565b604051602001610c509291906124f0565b6040516020818303038152906040525b915050919050565b60076020528060005260406000206000915054906101000a900460ff1681565b6000600560008473ffffffffffffffffffffffffffffffffffffffff1673ffffffffffffffffffffffffffffffffffffffff16815260200190815260200160002060008373ffffffffffffffffffffffffffffffffffffffff1673ffffffffffffffffffffffffffffffffffffffff16815260200190815260200160002060009054906101000a900460ff16905092915050565b60007f01ffc9a7000000000000000000000000000000000000000000000000000000007bffffffffffffffffffffffffffffffffffffffffffffffffffffffff1916827bffffffffffffffffffffffffffffffffffffffffffffffffffffffff1916149050919050565b610d8f816116e3565b610dce576040517f08c379a0000000000000000000000000000000000000000000000000000000008152600401610dc5906122b2565b60405180910390fd5b50565b600033905090565b816004600083815260200190815260200160002060006101000a81548173ffffffffffffffffffffffffffffffffffffffff021916908373ffffffffffffffffffffffffffffffffffffffff160217905550808273ffffffffffffffffffffffffffffffffffffffff16610e4c836107b9565b73ffffffffffffffffffffffffffffffffffffffff167f8c5be1e5ebec7d5bd14f71427d1e84f3dd0314c0f7b2291e5b200ac8c7c3b92560405160405180910390a45050565b600080610e9e836107b9565b90508073ffffffffffffffffffffffffffffffffffffffff168473ffffffffffffffffffffffffffffffffffffffff161480610ee05750610edf8185610c88565b5b80610f1e57508373ffffffffffffffffffffffffffffffffffffffff16610f06846105b7565b73ffffffffffffffffffffffffffffffffffffffff16145b91505092915050565b8273ffffffffffffffffffffffffffffffffffffffff16610f47826107b9565b73ffffffffffffffffffffffffffffffffffffffff1614610f9d576040517f08c379a0000000000000000000000000000000000000000000000000000000008152600401610f9490612586565b60405180910390fd5b600073ffffffffffffffffffffffffffffffffffffffff168273ffffffffffffffffffffffffffffffffffffffff16141561100d576040517f08c379a000000000000000000000000000000000000000000000000000000000815260040161100490612618565b60405180910390fd5b61101883838361174f565b611023600082610dd9565b6001600360008573ffffffffffffffffffffffffffffffffffffffff1673ffffffffffffffffffffffffffffffffffffffff16815260200190815260200160002060008282546110739190612638565b925050819055506001600360008473ffffffffffffffffffffffffffffffffffffffff1673ffffffffffffffffffffffffffffffffffffffff16815260200190815260200160002060008282546110ca919061266c565b92505081905550816002600083815260200190815260200160002060006101000a81548173ffffffffffffffffffffffffffffffffffffffff021916908373ffffffffffffffffffffffffffffffffffffffff160217905550808273ffffffffffffffffffffffffffffffffffffffff168473ffffffffffffffffffffffffffffffffffffffff167fddf252ad1be2c89b69c2b068fc378daa952ba7f163c4a11628f55a4df523b3ef60405160405180910390a4611189838383611754565b505050565b8173ffffffffffffffffffffffffffffffffffffffff168373ffffffffffffffffffffffffffffffffffffffff1614156111fd576040517f08c379a00000000000000000000000000000000000000000000000000000000081526004016111f49061270e565b60405180910390fd5b80600560008573ffffffffffffffffffffffffffffffffffffffff1673ffffffffffffffffffffffffffffffffffffffff16815260200190815260200160002060008473ffffffffffffffffffffffffffffffffffffffff1673ffffffffffffffffffffffffffffffffffffffff16815260200190815260200160002060006101000a81548160ff0219169083151502179055508173ffffffffffffffffffffffffffffffffffffffff168373ffffffffffffffffffffffffffffffffffffffff167f17307eab39ab6107e8899845ad3d59bd9653f200f220920489ca2b5937696c31836040516112ee9190611a5f565b60405180910390a3505050565b60008173ffffffffffffffffffffffffffffffffffffffff1660001b9050919050565b60008261132b8584611759565b1490509392505050565b600073ffffffffffffffffffffffffffffffffffffffff168273ffffffffffffffffffffffffffffffffffffffff1614156113a5576040517f08c379a000000000000000000000000000000000000000000000000000000000815260040161139c9061277a565b60405180910390fd5b6113ae816116e3565b156113ee576040517f08c379a00000000000000000000000000000000000000000000000000000000081526004016113e5906127e6565b60405180910390fd5b6113fa6000838361174f565b6001600360008473ffffffffffffffffffffffffffffffffffffffff1673ffffffffffffffffffffffffffffffffffffffff168152602001908152602001600020600082825461144a919061266c565b92505081905550816002600083815260200190815260200160002060006101000a81548173ffffffffffffffffffffffffffffffffffffffff021916908373ffffffffffffffffffffffffffffffffffffffff160217905550808273ffffffffffffffffffffffffffffffffffffffff16600073ffffffffffffffffffffffffffffffffffffffff167fddf252ad1be2c89b69c2b068fc378daa952ba7f163c4a11628f55a4df523b3ef60405160405180910390a461150b60008383611754565b5050565b61151a848484610f27565b611526848484846117af565b611565576040517f08c379a000000000000000000000000000000000000000000000000000000000815260040161155c90612878565b60405180910390fd5b50505050565b606060405180602001604052806000815250905090565b606060008214156115ca576040518060400160405280600181526020017f300000000000000000000000000000000000000000000000000000000000000081525090506116de565b600082905060005b600082146115fc5780806115e59061246b565b915050600a826115f591906128c7565b91506115d2565b60008167ffffffffffffffff81111561161857611617611e61565b5b6040519080825280601f01601f19166020018201604052801561164a5781602001600182028036833780820191505090505b5090505b600085146116d7576001826116639190612638565b9150600a8561167291906128f8565b603061167e919061266c565b60f81b81838151811061169457611693612929565b5b60200101907effffffffffffffffffffffffffffffffffffffffffffffffffffffffffffff1916908160001a905350600a856116d091906128c7565b945061164e565b8093505050505b919050565b60008073ffffffffffffffffffffffffffffffffffffffff166002600084815260200190815260200160002060009054906101000a900473ffffffffffffffffffffffffffffffffffffffff1673ffffffffffffffffffffffffffffffffffffffff1614159050919050565b505050565b505050565b60008082905060005b84518110156117a45761178f8286838151811061178257611781612929565b5b6020026020010151611946565b9150808061179c9061246b565b915050611762565b508091505092915050565b60006117d08473ffffffffffffffffffffffffffffffffffffffff16611971565b15611939578373ffffffffffffffffffffffffffffffffffffffff1663150b7a026117f9610dd1565b8786866040518563ffffffff1660e01b815260040161181b94939291906129ad565b602060405180830381600087803b15801561183557600080fd5b505af192505050801561186657506040513d601f19601f820116820180604052508101906118639190612a0e565b60015b6118e9573d8060008114611896576040519150601f19603f3d011682016040523d82523d6000602084013e61189b565b606091505b506000815114156118e1576040517f08c379a00000000000000000000000000000000000000000000000000000000081526004016118d890612878565b60405180910390fd5b805181602001fd5b63150b7a0260e01b7bffffffffffffffffffffffffffffffffffffffffffffffffffffffff1916817bffffffffffffffffffffffffffffffffffffffffffffffffffffffff19161491505061193e565b600190505b949350505050565b600081831061195e576119598284611994565b611969565b6119688383611994565b5b905092915050565b6000808273ffffffffffffffffffffffffffffffffffffffff163b119050919050565b600082600052816020526040600020905092915050565b6000604051905090565b600080fd5b600080fd5b60007fffffffff0000000000000000000000000000000000000000000000000000000082169050919050565b6119f4816119bf565b81146119ff57600080fd5b50565b600081359050611a11816119eb565b92915050565b600060208284031215611a2d57611a2c6119b5565b5b6000611a3b84828501611a02565b91505092915050565b60008115159050919050565b611a5981611a44565b82525050565b6000602082019050611a746000830184611a50565b92915050565b600081519050919050565b600082825260208201905092915050565b60005b83811015611ab4578082015181840152602081019050611a99565b83811115611ac3576000848401525b50505050565b6000601f19601f8301169050919050565b6000611ae582611a7a565b611aef8185611a85565b9350611aff818560208601611a96565b611b0881611ac9565b840191505092915050565b60006020820190508181036000830152611b2d8184611ada565b905092915050565b6000819050919050565b611b4881611b35565b8114611b5357600080fd5b50565b600081359050611b6581611b3f565b92915050565b600060208284031215611b8157611b806119b5565b5b6000611b8f84828501611b56565b91505092915050565b600073ffffffffffffffffffffffffffffffffffffffff82169050919050565b6000611bc382611b98565b9050919050565b611bd381611bb8565b82525050565b6000602082019050611bee6000830184611bca565b92915050565b611bfd81611bb8565b8114611c0857600080fd5b50565b600081359050611c1a81611bf4565b92915050565b60008060408385031215611c3757611c366119b5565b5b6000611c4585828601611c0b565b9250506020611c5685828601611b56565b9150509250929050565b600080600060608486031215611c7957611c786119b5565b5b6000611c8786828701611c0b565b9350506020611c9886828701611c0b565b9250506040611ca986828701611b56565b9150509250925092565b6000819050919050565b611cc681611cb3565b82525050565b6000602082019050611ce16000830184611cbd565b92915050565b600060208284031215611cfd57611cfc6119b5565b5b6000611d0b84828501611c0b565b91505092915050565b611d1d81611b35565b82525050565b6000602082019050611d386000830184611d14565b92915050565b611d4781611a44565b8114611d5257600080fd5b50565b600081359050611d6481611d3e565b92915050565b60008060408385031215611d8157611d806119b5565b5b6000611d8f85828601611c0b565b9250506020611da085828601611d55565b9150509250929050565b600080fd5b600080fd5b600080fd5b60008083601f840112611dcf57611dce611daa565b5b8235905067ffffffffffffffff811115611dec57611deb611daf565b5b602083019150836020820283011115611e0857611e07611db4565b5b9250929050565b60008060208385031215611e2657611e256119b5565b5b600083013567ffffffffffffffff811115611e4457611e436119ba565b5b611e5085828601611db9565b92509250509250929050565b600080fd5b7f4e487b7100000000000000000000000000000000000000000000000000000000600052604160045260246000fd5b611e9982611ac9565b810181811067ffffffffffffffff82111715611eb857611eb7611e61565b5b80604052505050565b6000611ecb6119ab565b9050611ed78282611e90565b919050565b600067ffffffffffffffff821115611ef757611ef6611e61565b5b611f0082611ac9565b9050602081019050919050565b82818337600083830152505050565b6000611f2f611f2a84611edc565b611ec1565b905082815260208101848484011115611f4b57611f4a611e5c565b5b611f56848285611f0d565b509392505050565b600082601f830112611f7357611f72611daa565b5b8135611f83848260208601611f1c565b91505092915050565b60008060008060808587031215611fa657611fa56119b5565b5b6000611fb487828801611c0b565b9450506020611fc587828801611c0b565b9350506040611fd687828801611b56565b925050606085013567ffffffffffffffff811115611ff757611ff66119ba565b5b61200387828801611f5e565b91505092959194509250565b60008060408385031215612026576120256119b5565b5b600061203485828601611c0b565b925050602061204585828601611c0b565b9150509250929050565b7f4e487b7100000000000000000000000000000000000000000000000000000000600052602260045260246000fd5b6000600282049050600182168061209657607f821691505b602082108114156120aa576120a961204f565b5b50919050565b7f4552433732313a20617070726f76616c20746f2063757272656e74206f776e6560008201527f7200000000000000000000000000000000000000000000000000000000000000602082015250565b600061210c602183611a85565b9150612117826120b0565b604082019050919050565b6000602082019050818103600083015261213b816120ff565b9050919050565b7f4552433732313a20617070726f76652063616c6c6572206973206e6f7420746f60008201527f6b656e206f776e6572206e6f7220617070726f76656420666f7220616c6c0000602082015250565b600061219e603e83611a85565b91506121a982612142565b604082019050919050565b600060208201905081810360008301526121cd81612191565b9050919050565b7f4552433732313a2063616c6c6572206973206e6f7420746f6b656e206f776e6560008201527f72206e6f7220617070726f766564000000000000000000000000000000000000602082015250565b6000612230602e83611a85565b915061223b826121d4565b604082019050919050565b6000602082019050818103600083015261225f81612223565b9050919050565b7f4552433732313a20696e76616c696420746f6b656e2049440000000000000000600082015250565b600061229c601883611a85565b91506122a782612266565b602082019050919050565b600060208201905081810360008301526122cb8161228f565b9050919050565b7f4552433732313a2061646472657373207a65726f206973206e6f74206120766160008201527f6c6964206f776e65720000000000000000000000000000000000000000000000602082015250565b600061232e602983611a85565b9150612339826122d2565b604082019050919050565b6000602082019050818103600083015261235d81612321565b9050919050565b7f616c726561647920636c61696d65640000000000000000000000000000000000600082015250565b600061239a600f83611a85565b91506123a582612364565b602082019050919050565b600060208201905081810360008301526123c98161238d565b9050919050565b7f696e76616c6964206d65726b6c652070726f6f66000000000000000000000000600082015250565b6000612406601483611a85565b9150612411826123d0565b602082019050919050565b60006020820190508181036000830152612435816123f9565b9050919050565b7f4e487b7100000000000000000000000000000000000000000000000000000000600052601160045260246000fd5b600061247682611b35565b91507fffffffffffffffffffffffffffffffffffffffffffffffffffffffffffffffff8214156124a9576124a861243c565b5b600182019050919050565b600081905092915050565b60006124ca82611a7a565b6124d481856124b4565b93506124e4818560208601611a96565b80840191505092915050565b60006124fc82856124bf565b915061250882846124bf565b91508190509392505050565b7f4552433732313a207472616e736665722066726f6d20696e636f72726563742060008201527f6f776e6572000000000000000000000000000000000000000000000000000000602082015250565b6000612570602583611a85565b915061257b82612514565b604082019050919050565b6000602082019050818103600083015261259f81612563565b9050919050565b7f4552433732313a207472616e7366657220746f20746865207a65726f2061646460008201527f7265737300000000000000000000000000000000000000000000000000000000602082015250565b6000612602602483611a85565b915061260d826125a6565b604082019050919050565b60006020820190508181036000830152612631816125f5565b9050919050565b600061264382611b35565b915061264e83611b35565b9250828210156126615761266061243c565b5b828203905092915050565b600061267782611b35565b915061268283611b35565b9250827fffffffffffffffffffffffffffffffffffffffffffffffffffffffffffffffff038211156126b7576126b661243c565b5b828201905092915050565b7f4552433732313a20617070726f766520746f2063616c6c657200000000000000600082015250565b60006126f8601983611a85565b9150612703826126c2565b602082019050919050565b60006020820190508181036000830152612727816126eb565b9050919050565b7f4552433732313a206d696e7420746f20746865207a65726f2061646472657373600082015250565b6000612764602083611a85565b915061276f8261272e565b602082019050919050565b6000602082019050818103600083015261279381612757565b9050919050565b7f4552433732313a20746f6b656e20616c7265616479206d696e74656400000000600082015250565b60006127d0601c83611a85565b91506127db8261279a565b602082019050919050565b600060208201905081810360008301526127ff816127c3565b9050919050565b7f4552433732313a207472616e7366657220746f206e6f6e20455243373231526560008201527f63656976657220696d706c656d656e7465720000000000000000000000000000602082015250565b6000612862603283611a85565b915061286d82612806565b604082019050919050565b6000602082019050818103600083015261289181612855565b9050919050565b7f4e487b7100000000000000000000000000000000000000000000000000000000600052601260045260246000fd5b60006128d282611b35565b91506128dd83611b35565b9250826128ed576128ec612898565b5b828204905092915050565b600061290382611b35565b915061290e83611b35565b92508261291e5761291d612898565b5b828206905092915050565b7f4e487b7100000000000000000000000000000000000000000000000000000000600052603260045260246000fd5b600081519050919050565b600082825260208201905092915050565b600061297f82612958565b6129898185612963565b9350612999818560208601611a96565b6129a281611ac9565b840191505092915050565b60006080820190506129c26000830187611bca565b6129cf6020830186611bca565b6129dc6040830185611d14565b81810360608301526129ee8184612974565b905095945050505050565b600081519050612a08816119eb565b92915050565b600060208284031215612a2457612a236119b5565b5b6000612a32848285016129f9565b9150509291505056fea26469706673582212201a535015a26d8c5e12da6734bbc113df54b87424d248c9e9d57b9c048e52c2e164736f6c63430008090033",
  "linkReferences": {},
  "deployedLinkReferences": {}
}